:1000000000000000010C0000ED0A0000ED0A0000F5
:10001000ED0A0000ED0A0000ED0A0000ED0A000004
:10002000ED0A0000ED0A0000ED0A0000ED0A0000F4
:10003000ED0A0000ED0A0000ED0A0000ED0A0000E4
:10004000ED0A0000ED0A0000ED0A0000ED0A0000D4
:10005000ED0A0000ED0A0000ED0A0000ED0A0000C4
:10006000ED0A0000ED0A0000ED0A0000ED0A0000B4
:10007000ED0A0000ED0A0000ED0A0000ED0A0000A4
:1000800000480047010C00000000000000000000D4
:100090000000000000000000000000000000000060
:1000A0000000000000000000000000000000000050
:1000B0000000000000000000000000000000000040
:1000C0000000000000000000000000000000000030
:1000D0000000000000000000000000000000000020
:1000E0000000000000000000000000000000000010
:1000F0000000000000000000000000000000000000
:1001000021A3010051A3010075A3010085A30100F3
:10011000B9A30100B5990100E19901001DA70100F3
:1001200041A701005DA701005D9C010005F40100ED
:10013000E1A801007DED0100DDA401001DA5010085
:100140001D06000025080000290A00003D0A0000E5
:10015000410A0000C18D010065F401002D3300004B
:10016000453400008D340000B952000001530000F6
:10017000C9350000B1390000DDAD0100BDAD0100A1
:100180004539000009AA01007D6C000051320000D1
:10019000C93A000005B001005DB001002D3D00002E
:1001A00051BE0100D1BE0100895D00000DB6010005
:1001B0004D340000493400001D760000857C0000AD
:1001C000ADC30100118700000DBB01000DBF010090
:1001D000799000007D92000029C70000719701000E
:1001E0008919020015210100519001007990010048
:1001F000CD09020075010200E5910100F9960100A8
:100200003597010011160200F5170200952501002F
:10021000A5250100B1250100C5250100D925010052
:10022000F525010085260100492C01005D2C010007
:10023000DD2D0100092501005D350100F93F0100B8
:10024000B1400100091201001D120100A9120100B4
:10025000211501008D0E0000A50E0000D10E00003A
:10026000750F0000312D0000FD0B00000130000073
:1002700055310000FD0B0000FD0B0000FD0B0000E0
:10028000FD0B0000FD0B0000FD0B0000F9E7010075
:10029000B9FD000081DC01001DD4010035FE000025
:1002A00055FE000089D70100F5D8010011D70100E3
:1002B0004DFF000001308100B58E80006D5F810030
:1002C00039D68000B98A8000010581004DC7010040
:1002D0002D8B8000EDF68000F5D48000ED6281006A
:1002E000656A810091838100798680007580800035
:1002F000D9158100C5BA80003981800095D9800068
:10030000ADB780007D5D8100ED5281003106810036
:10031000AD6E8100BDB68000AD06810015A28000E3
:10032000295B8100C9498100299C80005D0A810008
:10033000E15981000D8281004DBE8000F986800068
:1003400019E78000916F81008182800025868000FE
:100350003D5F8100995781006983800085EE01002F
:100360003D928000E9998000311B81003D6D810044
:10037000BD1F8100ED918000CD2B8100AD9C8000E0
:10038000C55C810051628100BDA180001D8081009B
:10039000D9C48000CDB680008570810059EA010083
:1003A000499E8000A15A810039BF80006D5C8100A8
:1003B0006DEF0100199C8000317F81009D9F8000BE
:1003C000A91C8100A183800069838100E5BB8000B6
:1003D000811E8100490581002D8281002505810053
:1003E000515781004D8C800059838000311C810061
:1003F00021FD8000C583800025408100516C810073
:1004000009170200A9B980000160810051B2010002
:10041000FDE78000A1CF800011FB8000E556810040
:1004200065C98000B505810019908000519C80004D
:100430003D73810065B8800091228100D9678100F9
:100440003507810061668100E58A8000358780007C
:1004500061188100B9D480006DC58000E5EA010013
:10046000894D810081FB800009CF8000BD0F810094
:1004700051F9800035808000D53F8100F54C810026
:10048000498580005D9E800051608100591B81007C
:1004900085F08000618B8000096B810011828000F3
:1004A000654B81008140020051FD800039D58000FC
:1004B00055F78000619B8000CD168100018580008A
:1004C000156C810099378100CD85800055DF800053
:1004D0007D13810009D2010041B98000D99E8000BE
:1004E000194D810011588100B9808000B9FB80004E
:1004F00075578100D5D58000B5CE80009D718100F3
:100500009182800065878000A58880002D6B810026
:10051000C93F0200ED5B8100DD9B8000A12E8100C0
:10052000F59A010021138100C5998000A9C18000BE
:1005300029A0800025078100216081001129810008
:10054000C18A8000E11D810069D68000A56B810011
:10055000CD8E800011608100B51B81007D8C8000F4
:1005600011C48000399E8000A59901004DA1800032
:1005700019C980005DCA8000F1188100A19C0100AA
:10058000B9D5800075D101003D9F8000A9D38000BE
:100590006905810009528100259B010071158100C8
:1005A000200000001F000000010100000102020302
:1005B0000300000000000000000000000000000038
:1005C000000000000000000000000000000000002B
:1005D000000000000000000000000000000000001B
:1005E000000000000000000000000000000000000B
:1005F00000000000000000000000000000000000FB
:1006000000000000000000000000000000000000EA
:10061000000000000000000000000000034B1A680A
:100620000023C2F84436D2F844367047DC05000097
:100630007047C0461FB501680446A1F110030F2B97
:1006400002D800F01FF930E0836C22460093436C1F
:10065000019383680293C36814480393E36C15F015
:10066000F7DDE36921690093236A62690193636A94
:100670000F480293A36A0393A36915F0E9DDA36B06
:10068000226B0093E36B0B480193236CE16A0293A6
:10069000636B15F0DDDD084A40F2432013685460B7
:1006A00043F48063136000F0A3FA1FBDDA1902005F
:1006B0000F1A0200421A0200F03E020010B54FF07D
:1006C000004000F053FA10BD10B54FF0004000F0AC
:1006D0002FFA10BD10B500F033FE10BD104B10B551
:1006E0001A68D2F8443613F0007F18D040230D4C1E
:1006F000C2F80836D2F80836FFF790FF236863B1D6
:1007000009F0D4DA084B1B68C3EB00032068984259
:1007100003D9C01A09F0E0DB01E000F0CBF810BD0E
:10072000DC050000B8050000B40500002DE9F0412B
:10073000274F3B78B3B9274E317899B9264B274DCF
:100740005C1B07D02846224619F0C8FE28462146E1
:1007500009F086D92248214615F07ADD01233B7045
:10076000337032E01F4F3E78AEB91F4B1F4D5C1BFC
:1007700008D031462846224619F0B0FE28462146C8
:1007800009F06ED91A48214615F062DD104B1E7033
:1007900001233B7019E0DFF8688098F80060A6B983
:1007A000144B154D5C1B08D031462846224619F0E3
:1007B00095FE2846214609F053D91048214615F0E8
:1007C00047DD01233E7088F80030BDE8F081C04667
:1007D000173D0200153D0200F87F0200303F020085
:1007E000711A0200143D0200BCC70200F87F02002B
:1007F000A31A020020530300BCC70200D51A02004E
:10080000163D0200044B1A68044B1B68D21A044BB5
:100810001868C0EB0200704704060000C80500001D
:10082000E40500007047C04610B5FFF753FFFFF71F
:1008300045FF074B1C6805E0236A1B6A0BB1204685
:100840009847246B002CF7D1FFF73EFF10BDC04640
:10085000203D020010B50446FFF736FF2046FFF7A3
:10086000E7FE2046FFF7E0FFFBE7C046034B10B56D
:100870001868034B196819F0ABFE10BD1C3D02004F
:10088000DC050000094B70B5186819F0ABFA084B8D
:1008900005461C6807E0E3681D4203D063680BB19E
:1008A000A06898472468002CF5D170BD1C3D02005B
:1008B000283D020010B5084C0023237009F026D90A
:1008C000237843B9054B1B681BB1586809F004DB5A
:1008D00001E0FFF7A3FE10BDD8050000E805000009
:1008E0007047C046084B09480949C0EB0300094B53
:1008F000094AC1EB0301094B10B5C2EB03024FF4E7
:10090000905309F0E1D910BD6832020000000000E8
:1009100068320200143D0200143D02002D3F020027
:10092000012970B540D9506800210A2219F07CFDD8
:10093000204B04461A6890421DD91F494B680BB1E1
:100940001946FBE7C2EB04050C4611E04FF480604A
:10095000002109F037D8606030B34FF48062002185
:1009600019F0BCFD134A64681368013D013313603C
:10097000002DEBD118E017D20F4BC4EB02055868DD
:100980000AE043680C4C013D636009F02DD8094A28
:1009900060681368013B13600DB10028F1D1054B6D
:1009A0001A680AB9044B5A60024B0448196815F0DA
:1009B0004FDC70BD243D0200303D02008A1C020065
:1009C000838999408368C85C7047C0468389D2B2E6
:1009D00099408368CA54704770B504460D46052196
:1009E0002046FFF7EDFF10F0200FF8D02046002141
:1009F0002A46FFF7EBFF70BD10B5D0F8A04004E029
:100A00002168034815F024DCE468002CF8D110BDFF
:100A1000FD1F020010B5002019F0A4F810BDC0465B
:100A200010B519F09FF810BD10B5044619F0FEF886
:100A300010B10123C4F8403110BDC046A420704756
:100A400010B50249902219F069FD10BDA01C0200EA
:100A5000012902D1D0F8C00003E002290BD1D0F85F
:100A6000C40040B14FF47F6383608368D3F1010019
:100A700038BF002000E001207047C0460023DAB2F2
:100A800001334008FBD110467047C04670B504469C
:100A90000D4604E0D4F8AC00012209F0DFD9294664
:100AA000204608F0FFDA01460028F3D170BDC046A9
:100AB00010B5044604E0D4F8AC00002209F0CED909
:100AC0000121204608F092DB01460028F3D110BD39
:100AD00010B504460846044919F054FC08B100203A
:100AE00001E004F1900010BD301D020068468369EA
:100AF00041690BB503695A4651460EB44A46414610
:100B000006B4C36882684168FEB40368C269EFF343
:100B100003810EB48269EFF3058106B403480168CE
:100B20000029FED06846884714B000BDD00B0000F5
:100B30000A49084202D062B6C9430840084908423F
:100B400002D061B6C943084006490840002803D0D6
:100B500005490A6802430A607047000000000080EF
:100B600000000040FFFF000000E100E00A490842E9
:100B700002D072B6C94308400849084202D071B693
:100B8000C943084006490840002804D005490A68BE
:100B9000C04302400A60704700000080000000402F
:100BA000FFFF000080E100E00249096890228858B8
:100BB00070470000D80B0000024909689C22885049
:100BC00070470000D80B0000DDBAADBB000000008C
:100BD0000000000000000000000000000000000015
:100BE000024A11681060081C70470000D00B00001A
:100BF00001490860FEE70000C80B00007046F7E7F7
:100C000074480168744F0F403F4232D10023984628
:100C10009A46724A0A401821CA4071494358714C99
:100C20001C40714DAC4204D18046704D4519A94617
:100C30000EE06F4DAC420BD182466C4D4519AB4670
:100C40000F241D1C23406B4C25402D0A2B439C4632
:100C50000023984501D09A4504D1674BC018013A4A
:100C6000DCD105E05046004202D04046004229D186
:100C7000FEE7FC2141580A680F2313400F2BF1D0E7
:100C8000012B01D00431F6E708315C4B13405C4C7A
:100C9000A34206D100F0DEF8804600F0E7F8814676
:100CA000E9E7584CA342E6D10B1F1B68564C234082
:100CB0001824E3409C4600F0CDF8824600F0D6F8B8
:100CC0008346D8E7514921224250424A5049895827
:100CD000FF23194222D051684E4B19421ED0116891
:100CE0004D4B1940D36AC02423404C4CA142C02430
:100CF00000D013E0A34211D0494B484CA14200D090
:100D00000CE048498958194208D047498958194088
:100D10009942FAD1384B11691942FCD049463F42F9
:100D200004D19823CB581024E34001E03F4BCB582B
:100D30001C242340002B01D000F0A6F840463C497B
:100D4000086048463B4908603B490F606046514691
:100D500000228A58131CF0210B401B09032807D3DB
:100D6000161C36490E401421CE40002E00D0013B07
:100D70000F210A400E3201249440251C5D430328B4
:100D800006D3002E04D0013E0E360124B4402D19A6
:100D9000002DFED02A490D60043DAD46009DEC4378
:100DA0001023DD41AC4201D081B009E0240CA40045
:100DB000244D2C606B461B1B234D2B60043B9D4632
:100DC00022482349002204C08142FCD818F0DAFDF1
:100DD000FEE7000000000018000000F00000000F17
:100DE000FC0F0000F08F0000A0820000000F000048
:100DF000E0800000007000000010000000FF0F0005
:100E0000002A0800000E0800000000FFE0010000BA
:100E10000406000000003800FFFF00001943000036
:100E200000040000180600000C0600000804000082
:100E3000D80B0000DC0B0000D40B00000000F00019
:100E400068320200703202006C320200143D02006F
:100E50002D3F020008680F2204310240052AF9D113
:100E6000014A1040F746000000F0FFFF08680F221B
:100E700004310240052AF9D180221042F6D0014AFD
:100E80001040F74600F0FFFFFEE70000D0F88C307E
:100E9000D0F8802003EB8203D3F880007047C0466F
:100EA0007047C0464FF0FF307047C046C36BC3F376
:100EB00081100F2801D9002002E0024B53F82000D6
:100EC0007047C046901D020010B500F069F810BDD3
:100ED00010B519F0F3F810BD10B519F08DF810BD6C
:100EE00010B5044615F0E8D90F28014601D90020B5
:100EF00002E0204619F080F810BDC046026B44F2B3
:100F000019339A4273B505460E461BD1446BCCB9D2
:100F1000D9B10223009321464FF0FF334FF4F07212
:100F200018F0A6FF224640F61A012846FFF7D8FF20
:100F30002846012118F098FF28464FF40061224608
:100F4000FFF7CEFF012E08BF02262846002140F2FF
:100F500034624FF0FF33009618F08AFF7CBDC04624
:100F6000034B10B51B6803FB01F1FFF7C7FF10BD72
:100F7000583D020010B519F075F810BD00B59E4639
:100F80000B6853F8040B0B6042B110F0010FF7D05F
:100F90000F2803D000EA02037345F1D100BDC0461B
:100FA000D0F88830CA5070474260C26001608160EA
:100FB0007047C0460EB417B505AB044653F8042B72
:100FC00000686168019315F043D8B0F1FF3F03D08A
:100FD0006368984200DA10B90023636004E01B1ACA
:100FE000636023681B182360BDE81E4003B0704790
:100FF0002DE9F041069F0D461E4604E0AB8A9A4259
:1010000006D32D68D21A0DB9A84618E0002AF5D1EA
:101010004FF0000811E0AB8A2869C2EB0304B44228
:1010200028BF344610183946224619F077FA2D6841
:10103000A04425B13F19361B0022002EEBD14046BB
:10104000BDE8F08110B5427886B0037800928278CE
:101050000C460192C27802920279039242790846C4
:1010600004921221024A15F017D9204606B010BD8D
:10107000AC1D020010B50449062219F051F9D0F157
:10108000010038BF002010BDA01D020010B50449AA
:10109000062219F045F9D0F1010038BF002010BD3B
:1010A000A61D020010B519F0D3F818B100210A46A8
:1010B00014F03ADD10BDC0462DE9F041044618F0A9
:1010C00099FE0022074640F60D012046FFF708FF73
:1010D000024608B1064605E0204640F62901FFF722
:1010E000FFFE0646204618F01DFF054620B92046A3
:1010F00029462A4618F0B4FE2046FFF7C7FE40F600
:101100000D03984204D12046FFF734FF07280DD97C
:1011100096F85F3603F00300012804D0022805D1B9
:101120004FF4806603E04FF4807600E000261DB99E
:101130002046294618F098FE20463946FFF7CCFE97
:101140003046BDE8F081C0462DE9F04F85B00E9CD9
:101150009DF8442014F0010F1F4680460F9B00921B
:1011600040F0928013F0010940F08E801E19B6F510
:10117000007F00F289805B08019318F063FE00286D
:1011800000F08280404618F035FE40F60D010290D6
:101190004A464046FFF7A4FE054630B92A46404677
:1011A00040F62901FFF79CFE0546404618F0BAFEBE
:1011B000824620B940465146524618F051FE4046FC
:1011C0003946FFF779FF834610B94FF0FF344FE0FF
:1011D0004FEA40039E42039302D96FF0010447E0B7
:1011E00067082AE0BBB25B00DAB205F5C264C3F35C
:1011F000072385F81F360B340223002685F81E26A8
:1012000085F81B3606E0237813F0080F09D101207A
:1012100018F0D0FB1F4B01369E42F4D16FF0020450
:1012200026E095F81D2695F81C36013743EA02237F
:10123000109A22F8193009F101095F4502D2019B89
:101240009945CFD1009A92B1109B1A884FF6FF733F
:101250009A4202D16FF003040AE0FF22109803992A
:1012600014F00EDC9F2802D06FF0040400E000248C
:10127000BAF1000F03D14046514618F0F5FD404643
:101280000299FFF729FE00E00124204605B0BDE8E1
:10129000F08FC04640420F0070B50546144618F066
:1012A000A9FD002106462846FFF716FED0F818369D
:1012B00014B143F0200301E023F02003C0F81836F6
:1012C00031462846FFF708FE70BDC04610B519B17B
:1012D000044A4FF4927102E0034A4FF49271FFF70F
:1012E000F3FD10BD84858600840506002DE9F041DC
:1012F0000E46046A10490020174618F0A9FF08B9E5
:10130000122504E000210A4614F00EDC05460020F8
:101310000A4918F09DFF30B9C4F304224FF0FF339F
:101320009340D84303E000210A4614F0FDDB35600A
:101330003860BDE8F081C046DD1D0200E21D0200FC
:1013400030BF70470246938A0069401AC91810617D
:10135000918270470246938A00695B1A40181061B7
:1013600093827047006970474269C069136A1840E8
:101370001062704710B50446FFF7F6FF08B120620F
:10138000012010BD436900229A629B6A8261704706
:10139000C269436982619A627047C04610B50446CB
:1013A000FFF7E2FF236A0343236210BD406A10B5D2
:1013B000436E984710BDC0462DE9F3419DF820507B
:1013C0000E4607469846002102E08B5D13B10131BD
:1013D0009142FAD1735C13B16FF0010076E05DB118
:1013E0004B1D4C1C934202D96FF00D006EE001A81A
:1013F0003119042219F092F8341D2046344918F0AE
:10140000C1FF28B9002D5FD0019B0F2B59D845E0B3
:101410002046304918F0B6FF08B901303DE02046BB
:101420002D4918F0AFFF08B9023036E020462B49AD
:1014300018F0A8FF60B90DB9033035E0019A072A0A
:101440003FD80123934013F0830F3AD0032024E0C8
:101450002046234918F096FF08B904301DE02046C5
:10146000204918F08FFF08B9053016E020461E49C4
:1014700018F088FF08B906300FE020461B4918F025
:1014800081FF08B9073008E02046194918F07AFFB3
:1014900010B16FF0160019E008202DB1019B07EB89
:1014A0008002C2F894310AE007EB800101F5CA71AD
:1014B0003046042219F032F80423C8F80030002026
:1014C00004E06FF01C0001E02846EDE7BDE8FC8178
:1014D000171E0200241E0200301E02003C1E0200E5
:1014E000431E02004C1E0200531E02005E1E02003C
:1014F0006A1E020070B50446002506E025B1A0680A
:101500002946012208F0AADC3546606A0021C36A38
:10151000984706460028F1D175B1D4F8F41019B1F6
:10152000A068012208F09ADCD4F8F830C4F8F4502E
:10153000AB4208BFC4F8F86070BDC0462DE9F04F5B
:101540000646BBB0002488463794FFF7D3FFD6F891
:10155000A421012104A8521814F030DD01252746EA
:101560001BE0002104A8224614F040DB012D04D129
:101570002369A2689B1A0B2B0EDD23695B7913F09C
:10158000800F09D113F00F0F06D000E00446206849
:1015900001350028FAD100E0012706F128021046A3
:1015A0000021009214F08EDB04460028D9D103E01C
:1015B0000098002114F01ADB04A8002114F082DB4B
:1015C00002460028F4D1002F40F0DA80D6F8F0303F
:1015D0001B689D4200F2D4804FEA48010C3189B269
:1015E000ADF8E610B068103108F02EDC029000284B
:1015F00000F0C680D0F810A03AAC34F8022D39467D
:10160000504618F06BFF21460222504618F086FF24
:10161000BDF8E6300AF10200DB4321460222ADF8B4
:10162000E63018F07BFFB9460AF10C030193ADF8E0
:10163000E270039763E0BA8AB84603E098469B8A53
:10164000D3189AB2D8F80030002BF7D13B69ADF827
:10165000E6201D1D93F804B0B9F1000F02D0C9F8BF
:10166000007015E0484B0AF104004BEA030336A969
:101670000822369318F052FF96F8063186F80731A3
:101680008AF80930BDF8E63003970C33ADF8E63040
:1016900036AC20462946082218F040FF369B0BF155
:1016A000010223F0FF03D2B21A43214636922846A4
:1016B000082218F033FF96F80631C14686F8073144
:1016C0006B71D6F89C21BDF8E610531E5B18B3FB76
:1016D000F2F302FB03F292B2C1EB0201A8F8181078
:1016E000BDF8E230ADF8E420D318019A39A9941C72
:1016F00010460222ADF8E23018F010FF0194009875
:10170000002114F0DFDA0746002894D106F12808FA
:101710003946029A404614F069DA039A0C2113699B
:1017200010461C79FFF70EFE039B0DF1E2091D69BF
:1017300049460222284618F0F1FEBDF8E23049463B
:10174000DB430222A81C44F04064ADF8E23044F4CC
:10175000407418F0E3FE36A90822281D369418F0CC
:10176000DDFE96F80631404686F807316B72394641
:10177000039A14F03BDA96F80431013386F8043109
:101780003BB0BDE8F08FC0460083000C70B5046824
:1017900094F87D5195B1D4F88011D4F884210223B6
:1017A00081EA0202E06818F069FBD4F88C01B4F811
:1017B0008A11002208F038DA00230FE00223D4F85F
:1017C0008011D4F88421E06818F058FBD4F88C011B
:1017D000B4F888112A4608F027DA012384F87D310D
:1017E00070BDC04670B590F87A3104469BB1D0F810
:1017F000801161B3D4F884210223C06818F03EFB45
:10180000D4F88011D4F88421E06881EA020202232E
:1018100018F034FB1BE090F87931C3B1D0F8801197
:10182000A9B190F87C5195B9C068D4F884210223FD
:1018300018F024FBB4F88811012684F87D6131B1D9
:10184000D4F88C012A4608F0EFD984F87C6170BD89
:1018500010B5D0F8FC300446194390F87731C0F841
:10186000FC10F3B111F0040F05D090F8783141EA83
:101870000363C0F8FC30D4F8FC30626913F00A0F3F
:101880001CBF43F48023C4F8FC30D4F8FC30D3648C
:101890000023C4F8FC3084F8773108335364FFF731
:1018A000A1FF10BD2DE9F0410546002748E0A868DA
:1018B000314618F06BFCD5F8F0301B68984205D91A
:1018C00020460021324614F01DDA46E0686A036EB5
:1018D0009847686A95F80541D0F8843098472418ED
:1018E00085F8064134690023A37195F878313146B3
:1018F000237295F80631012285F80731DBB2637255
:10190000D5F8C431686A0133C5F8C431036A984711
:10191000B0B9D5F8F8106379002932D013F00F0F61
:101920002FD06278237843EA02230F331B091A0A67
:101930000A6918BF0023937195F87831137220E07B
:10194000D5F8F0301B6843B105F12804204600218A
:1019500014F0B8D906460028A9D12FB16A6904232A
:1019600053642846FFF73EFFEB8D0C2B03D9286903
:1019700001F0E6F809E0072B07D8286901F0E2F842
:1019800003E00127C5F8F860DAE7BDE8F081C0465A
:101990002DE9F041D0F8A4311546C28D04469A4293
:1019A0000F460CD3022D0AD18068012208F056DAC6
:1019B000D4F8A83100200133C4F8A83162E0002136
:1019C00004F128003A4614F011D9022DE68D05D114
:1019D000D4F8A051012D05D0072D1DD02046FFF7CA
:1019E00061FF4EE0D4F894319E4207D32046314641
:1019F000FFF7A4FD2046FFF755FF0BE094F87B218D
:101A0000002A3ED1D4F89001D4F8981108F00CD9EE
:101A100084F87B51284635E094F87B311BB9606A25
:101A2000C36B984758B1D4F894319E4207D2D4F88A
:101A3000AC31C3B1BA8AD4F8B0319A4213D8012E6E
:101A400003D920463146FFF779FD2046FFF72AFFEC
:101A500094F87B31ABB1D4F8900108F0F9D80023A9
:101A600084F87B310DE094F87B2152B9D4F89001D1
:101A7000D4F8981108F0D8D80123184684F87B319F
:101A800000E00120BDE8F081F0B5D0F8A421E5B078
:101A90000C46012105465218684632AF14F08EDA22
:101AA00038460121102214F089DA2846FFF722FD7A
:101AB000686A0026C5F8F86083689847ACB1D5F825
:101AC000F42092B13846314614F090D8C5F8F4604D
:101AD0000BE0BDF8CE20BDF8CC309A422CBF684652
:101AE00032A82246002114F081D8686A0121C36A15
:101AF000984704460028ECD10EE06846C2888388E7
:101B00009A4204D20021224614F070D804E0A8685A
:101B10002146012208F0A2D905F12806304600210D
:101B200014F0D0D804460028E7D1686A4368984783
:101B300006E00B6928465A7902F00F02FFF728FFEA
:101B4000002132A814F0BED801460028F1D114E0DB
:101B5000EA8DD5F8A4319A420AD9A8682146012213
:101B600008F07CD9D5F8A8310133C5F8A83104E0D4
:101B700030460021224614F039D86846002114F07E
:101B8000A1D804460028E3D165B0F0BD2DE9F04F9F
:101B9000002487B001920494039490F874B18146B4
:101BA0000E46D0F80880BBF1000F01D0404613E08C
:101BB0000B698A6803F0030505F10C0A9B1A53456B
:101BC0001FD28F8A404607F10C01491908F03CD911
:101BD000044630B940463146012208F03FD920463C
:101BE00059E05146FFF7B6FB31693A46206918F0D3
:101BF00095FC33683146236040465A4608F02ED99A
:101C000026466DB13369B2689B1AAB4208D32946A8
:101C10003046FFF797FB306900212A4618F05EFC3A
:101C20003369B2689B1A0B2B03DD30460C21FFF79A
:101C300089FB31464046356914F0E2D906AC24F8F8
:101C4000020D21460222284618F068FCBDF8163025
:101C50002146DB430222A81CADF8163018F05EFCCA
:101C6000019A03A9130299F8042103F47063134342
:101C700043EA0A630822281D039318F04FFC4846E4
:101C80003146019AFFF784FE28B199F8043101200A
:101C9000013389F8043107B0BDE8F08F10B5002298
:101CA000FFF774FF10BDC04610B50B691A7C5B7C52
:101CB00042EA032246F688439A4214BF02220122D6
:101CC000FFF764FF10BDC046C38D70B50446E3B98D
:101CD00080681C2108F0B8D80546B0B14FF00C035D
:101CE0000C218382FFF736FB204629460122FFF7AD
:101CF0004DFF28B9D4F8CC310133C4F8CC3104E01D
:101D0000D4F8C8310133C4F8C83170BDB2F1FF3F17
:101D100010B501D1FF2307E0022A00D00AB982F0F2
:101D2000020201239340DBB2012990F8782101D10E
:101D3000134301E022EA030380F87831FFF7C4FF80
:101D400010BDC04610B50468002384F87B31D4F878
:101D5000A031E18D23B1012902DD2046FFF7EEFB22
:101D60002046FFF79FFD10BD70B590F8783105460D
:101D7000FF2B15D0406A036E9847686AD0F884300C
:101D8000984768B1686A95F80541D0F8843098475B
:101D9000241885F8064100F063FB2846FFF794FFFE
:101DA00070BDC04670B50446406A0025836C9847F4
:101DB000606A836898472046FFF7F8FA606A012155
:101DC000836A984700210A46E06818F049F8E068FD
:101DD000FFF766F8D4F8F41084F8055184F804513C
:101DE000C4F8FC5029B1A068012208F037D8C4F823
:101DF000F450C4F8F850256284F8745170BDC046A0
:101E00002DE9F7430C6905460E4608460821FFF701
:101E1000A1FA63889AB212F00F0821D012F0010FD4
:101E200004D0D5F854310133C5F8543112F0020F03
:101E300004D0D5F858310133C5F8583112F0040FE9
:101E400004D0D5F85C310133C5F85C3112F0080FCD
:101E500000F08380D5F860310133C5F860317CE053
:101E6000B38A032B05D8D5F844310133C5F8443182
:101E700043E0022231690DF1060018F04FFB316991
:101E80000222023101A818F049FB2388BDF8061090
:101E90009BB28B4206D1CB431B04BDF804201B0C24
:101EA0009A4215D023889BB28B4204D0D5F8483192
:101EB0000133C5F84831CB431B04BDF804201B0C8B
:101EC0009A421AD0D5F84C310133C5F84C3114E0A0
:101ED00004213046FFF73EFAB38A072B0DD9336948
:101EE0000821DC78304693F801901F780C3CFFF70E
:101EF00031FAB38AE1B28B4203D2A8683146424636
:101F00002EE03046FFF726FA95F805319F4206D0BD
:101F1000D5F8503185F805710133C5F8503195F881
:101F20000531013385F8053119F00F0304D1286913
:101F3000314600F043FE15E0022B04D128693146FA
:101F400000F06CFE0EE0012B07D1A8683146424636
:101F500007F084DFFEF75EFD04E0A868314600224A
:101F600007F07CDFBDE8FE83012370B5054680F8ED
:101F7000D031406A836C984703E028462146FFF73A
:101F80003FFF686AC36D984704460028F5D128468C
:101F9000FFF70CFA686A436C9847686A036E9847C3
:101FA000686A85F8D041D0F8843095F805419847A3
:101FB000241885F806412846FFF786FE70BDC04606
:101FC00070B50546406A43689847686A436C98470D
:101FD000686A036E9847686A95F80541D0F88430BE
:101FE00098472418686A85F806411B49036F98478B
:101FF000D5F88011C5F8F00089B1D5F88421022305
:1020000081EA0202E86817F039FFD5F8801102234F
:10201000E8680A4617F04EFF002385F87D3195F8F1
:1020200076310BB10D4B00E00D4BEB616A6901237A
:1020300085F8753185F877314FF08073C2F800313B
:1020400003F17F43284685F87B31FFF7A1F9284645
:102050000821FFF7FDFB70BD301D02000FFF01C717
:102060000FFF01072DE9F04190F87A410023066A3D
:1020700005460362D4B990F87931BBB1D0F880112C
:10208000A1B1D0F884210223C06881EA020217F0CE
:10209000F5FE95F87C3185F8794185F87D412BB1C5
:1020A000D5F88C0107F0D4DD85F87C4116F0804727
:1020B00006D02846FFF776FE2846FFF781FF34E07A
:1020C000002E2FDA6B695B6813F0040418D095F8C2
:1020D000743133B928463946FFF7D6FC2846FFF756
:1020E00043FF286985F8747100F02EFD6A6928465F
:1020F0001368022143F004031360FFF7A9FB11E00A
:10210000012385F87431286900F020FD2846214616
:10211000FFF7BAFC2846FFF727FF6A69136823F028
:102120000403136095F874410CB100274DE116F0DB
:10213000010F07D028460121FFF7A6FC2846012100
:10214000FFF786FB16F0020F09D0012385F87731DF
:10215000D5F8FC301BB128462146FFF779FB16F471
:10216000807F04D0D5F864310133C5F8643116F4AA
:10217000007F12D0D5F86831D5F8F4100133C5F8D6
:10218000683131B1A868012207F068DE0023C5F884
:10219000F43028460021FFF777FC16F0007F04D0CA
:1021A000D5F86C310133C5F86C3116F0806F04D06E
:1021B000D5F870310133C5F87031854806EA000062
:1021C00008B90746AAE016F47C4F63D016F4806085
:1021D00002D1074604460BE0686A036D9847071E64
:1021E00018BF0127686A436A9847041E18BF012474
:1021F00016F4006F0BD0686A036D9847002818BF6B
:102200000127686A436A9847002818BF012416F41A
:10221000805F0BD0686A036D9847002818BF0127BC
:10222000686A436A9847002818BF012416F4005FC3
:1022300004D0D5F838310133C5F8383116F4804F61
:1022400009D0D5F83C3101270133C5F83C31D5F828
:102250003C31D5F8383116F4004F0FD0D5F8403165
:10226000D5F8F4100133C5F8403131B1A868012226
:1022700007F0F4DD0023C5F8F43001240FB90CB9E0
:1022800008E024B128460021FFF7FEFB17B12846DD
:10229000FFF76AFE16F0807F02D02846FFF72AF982
:1022A00016F490330CD11F4634E028460137FFF76F
:1022B000A7FD082F05D12B6A43F480332B6206E07B
:1022C0000027686AC36D984701460028EDD1686A07
:1022D000036E9847686A95F80541D0F884309847AE
:1022E0002418686A85F80641D0F88430984708B900
:1022F00000F0BEF895F8063195F80721934209D011
:1023000095F80531C3EB0203DBB2022B02D8284655
:10231000FFF7DAFC072F94BF0027012716F0040F00
:1023200023D0D5F8801101B301236A6985F879318A
:10233000136A526A134013F0F00403D02846FFF7E3
:1023400051FA12E0D5F884210223E86881EA0202FA
:1023500017F094FD95F87C3185F87D412BB1D5F8C7
:102360008C0107F075DC85F87C41EE8D6EB3D5F8F5
:10237000A041012C02D0072C0CD023E095F87B2142
:102380001ABBD5F89001D5F8981107F04DDC85F807
:102390007B411AE095F87B3173B1D5F894319E42B8
:1023A0000AD2002105F1280017F0F8FE03695B78D6
:1023B00003F00F03032B08D1012E03D92846314621
:1023C000FFF7BCF82846FFF76DFA3846BDE8F08104
:1023D00000FC0101012910B5044607DD0023C0F807
:1023E000B431C0F8BC31C0F8C03128E0D4F8A42121
:1023F000E18D134813F02CDFD4F8A811114813F025
:1024000027DFD4F8C031D4F8BC21D4F8B4110E4879
:1024100013F01EDFD4F83C110C4813F019DF94F8C8
:10242000061194F807210A4813F012DF0948D4F87E
:10243000C411D4F8C821D4F8CC3113F009DF10BD91
:10244000B11E0200C71E0200DA1E0200051F0200B4
:10245000211F02004A1F02004FF0FF307047C046A4
:10246000024B1A6A002313627047C0469C32020076
:10247000024B1A6A024B13627047C0469C3202003C
:10248000F524000010B504468068FFF7EBFD30B17D
:10249000002104F11C000A4607F0C6DB02E0A06838
:1024A000FEF776FF10BDC04610B5846AA068FEF73F
:1024B00061FF28B1A068FEF765FF2046FFF7E2FF45
:1024C00010BDC046836A10B5986900F09BFB10BD33
:1024D0008B6A10B504462146986900F075FB10BD63
:1024E00010B54468A068FEF759FF2046FFF7CAFF01
:1024F00010BDC046836A10B5986900F089FB10BD15
:102500000A46816A034610B58869194600F03AFB0D
:1025100010BDC0460246938A0069401AC91810616E
:10252000918270470246938A00695B1A40181061D5
:102530009382704781827047C08A00F0070070471D
:10254000C38A01F0070123F007031943C1827047D2
:10255000C08AC0F3001070478B8A70B5032B0C46FD
:10256000806818D90D692B781B09012B13D1697864
:10257000204601F00701FFF7E3FF2B7813F0080F67
:1025800003D0E38A43F00803E38220460421FFF7E7
:10259000C9FF002004E02146002207F05FDC012093
:1025A00070BDC0460B698A682DE9F0419B1A032B68
:1025B0000C4686682CDC8F8A3046391D07F044DCD7
:1025C000054630B921463046012207F047DC2C464B
:1025D00033E02046FFF7B0FF01462846FFF7B0FF83
:1025E0002046FFF7B5FFEB8A10B143F0100301E07E
:1025F00023F0100328692169EB823A46043017F072
:102600008DFF21463046012207F028DC2C4603E0EE
:1026100008460421FFF77EFF256910232B70204612
:10262000FFF796FF08B114232B702046FFF784FFB5
:1026300000236870AB70638BEB702046BDE8F081BF
:102640002DE9F04F0A6995B08C8A9368069212685A
:10265000059000200F2C89460E930F921390129034
:10266000119040F24582069B5A68130C1B0413928A
:102670005BB1190C13041B0C8C42139304D26FF042
:102680000D0A1390099036E20A46139BB3F5005FDA
:1026900006D900236FF0170A1E46139309932BE205
:1026A000A4F110039A4234BF92469A46D9F80C100E
:1026B000069A4846891AFFF73DFFD9F81020D9F845
:1026C0000830C3EB0201102903D948461039FFF73F
:1026D00021FF10214846FFF725FFD9F80010B9F86F
:1026E00014B039B1059B0022986807F0B7DB0023CE
:1026F000C9F80030139901F110035B450ED8D9F8E1
:102700001080D9F80830C3EB08031F2B06D94846C0
:10271000FFF710FF002601220A9215E0059B3031D9
:10272000986807F091DB064618B9012280460A92A4
:102730000AE02021FFF7F6FE30461399FFF7FAFE74
:102740000023D6F810800A9300220892099251E0E3
:10275000139B10339A4528BF53460993002B4FD043
:102760001846002107F02ED9089038B3099B4F4630
:10277000CBEB03050FE040F24473059A9D4234BF52
:102780002E461E469068314607F05EDB04463860F0
:1027900020B10746AD1B002DEDDCB4E1059BD9F857
:1027A00000100122C9F80000986807F057DB059A6D
:1027B00008999068099A07F03FDB2646914B1B78F1
:1027C000D3B1139A02F1100353450BD90BF57C7367
:1027D0009A4207D9A2F5806313930122002308933C
:1027E0000B92B5E7ABF110031393D9F810800023D7
:1027F000089301220B920CE06FF01A0A13937CE10C
:102800000E9BDDF820B04FF0FF3ACDF84C800793D7
:10281000BCE0B8F1000F9BD0BAF1000F06D0069AC9
:10282000404602F11001524617F078FE764B0F9A9F
:102830009A4203D00E9B144607931CE0BAF1070F8F
:1028400006D80E9ADDF820B06FF0170A07929DE0C7
:10285000089BD8F8044033B9002E14BF30464846D0
:102860000821FFF75FFE0E9A08F1080842F0020205
:10287000AAF1080A0792654BE318B3F5997F88BF60
:102880002346B3F5837F0F933CD004D8022B48D066
:10289000FD2B11D04BE00F9A40F207139A4222D041
:1028A00004339A4243D1059B00211868584A4FF4DB
:1028B0007A7307F0DBD938E098F8021098F8013005
:1028C000090441EA032198F80030059A194398F861
:1028D0000330106841EA036100F046F9DDF820B0EA
:1028E0004FF0000A52E040464A49042217F064FDC6
:1028F0000546E0B901230093059B414658685246BE
:102900002B460BE040464349042217F055FD70B9B1
:10291000059A00905068139A414613ABFEF74CFDA0
:1029200003E0059B186800F013F982462CE00E9A2C
:10293000079BC2F3033113F0020212A809D011ABB6
:102940000193059A0123CDF800A00290039310682B
:1029500007E0139B0290009313AB0193059B039236
:1029600018682246434600F0D5F810F10E0F824653
:1029700009D10B9A3AB1DDF820B000236FF01A0AA2
:1029800013930F9402E00F94DDF820B0089B4BB135
:10299000059ACDF80080906849460022139BFEF707
:1029A00027FB06E0002E14BF304648461399FFF778
:1029B000C1FDBAF1000F01D0129B13930A9B33B9EA
:1029C000059A494690681A4607F048DAB146139BC3
:1029D0001F460D93BAF1000F18BF0027B9F1000F81
:1029E0001AD0D9F81030D9F808209B1A1F2B02D81A
:1029F000059A90684AE048461021FFF78BFDD9F808
:102A0000106057E0D83202003EDAFEFFE0EB1B0018
:102A1000752B00007E1F020007F12C0240F2437369
:102A20009A4294BF3C464FF4E364059B04F12C01A9
:102A3000986807F009DA814600284FD004F11C019C
:102A4000FFF778FD48460C21FFF76CFDD9F81060C0
:102A5000B8F1000F08D03CB1414606F11000224603
:102A600017F05CFDA0443F1BCDF830901DE040F214
:102A70004473059A9F4234BF3C461C4690682146E9
:102A800007F0E2D9054630B9059B9868494601220E
:102A900007F0E4D922E041462246006917F03EFDE6
:102AA0000C9AA0443F1B15600C95B8F1000F01D0A3
:102AB000002FDCD10D9A0F9B7260079A3360130CC4
:102AC0001B04BAF1000F01D043F00103B360059B72
:102AD000C6F80CA058684946FFF7E0F8BBF1000FB4
:102AE00015D0059A59469068099A07F0A5D90EE0C5
:102AF00009906FF0170A06460A960E9B4FF00008E1
:102B0000C34607934EE7DDF82080002681E615B026
:102B1000BDE8F08F1FB5C06B11469E469DF824405E
:102B200008B9013809E0079B026A0093089B0294E8
:102B300001935469069B7246A04704B010BDC0467D
:102B40007047C0467047C0467047C0467047C04691
:102B500010B50446C06B036A5B68984710B901233F
:102B600084F8423010BDC04610B58068FEF7F8F911
:102B700010BDC046036810B598680121FEF7BEF984
:102B800010BDC04673B504460D4699B192B1836B32
:102B900083B9C66B76B9C263A1634A635163009679
:102BA0004068214622682B4627F0ACFBE06008B164
:102BB000304601E04FF0FF307CBDC04610B5C06824
:102BC000FFF73EFD10BDC04670B511460446406893
:102BD00007F062D90146E068FFF7E4FC054678B1EA
:102BE00020682946FFF760F838B1AB8AE269D2184D
:102BF0006369E2610133636102E0E36A0133E36226
:102C0000002070BD10B50068FFF780F810BDC04609
:102C100010B50068FFF7A8F810BDC04670B50446AF
:102C2000C0680D46FFF798FC98B96068294607F020
:102C30003DD9024630B1E16B21B10B6AA06BDB6874
:102C4000984718B1A36A0133A36202E023690133F4
:102C5000236170BD520002F50062885A80B270474D
:102C60002DE9F041134B80461E681EE0F468B368FE
:102C70004046E71817F07EFB054610E02046414627
:102C80002A4617F04DFB30B9635D3D2B03D1631C21
:102C900058190DD108E014F8013B002BFBD1BC42C0
:102CA00002D22378002BE9D13668002EDED13046DF
:102CB000BDE8F081683E020073B50E461546FFF789
:102CC000CFFF002832D00246002004462BE0B31E7E
:102CD000032B22D8DFE803F01A120A02104601A9DA
:102CE000002212F021DF019A80B216E0104601A9FD
:102CF000002212F019DF019A00B20EE0104601A97D
:102D0000002212F011DF019AC0B206E0104601A9BC
:102D1000002212F009DF019A40B2137833B1AC42BD
:102D200004D0013201341378002BD0D180B27CBDA5
:102D3000034609B9986800E048687047836810B591
:102D4000586B18B1036A9B6903B1984710BDC04620
:102D500010B503680446587C18B1606801210BF077
:102D60009BFD23685B7C53B130B1002104F1380036
:102D70000A4606F059DF02E0606800F0F1FC10BD81
:102D800013B5846A0DF10701606800F0A7FF28B150
:102D90009DF8073013B12046FFF7DAFF1CBDC0468F
:102DA00010B5406800F0DCFC10BDC04607B5836A72
:102DB0000022009258680221134609F0B5FC0EBDAE
:102DC00070B58C6AA368994203D0C96B09B10E68CB
:102DD00000E0002623681146986C07F05DD8236850
:102DE0000546DB692BB1C38A13F0070101D113F04B
:102DF00017D860682946324605F08AFC003818BFAB
:102E0000012070BD2DE9F043002385B0DDF8389036
:102E1000039302F00103D0F80480009305461646A0
:102E200000684A460F9B0BF081DC0746002835D12D
:102E30000D9B032B04D903A80C99042217F06EFBF9
:102E4000039C032E03D8DFE806F0050709166FF090
:102E5000160723E06B7B0BE06C731FE040462521D7
:102E600002AA09F0D1FC0746C0B9029B03F0010396
:102E7000C9F8003012E0003C18BF0124404626216A
:102E8000002C0CBF4FF480324FF0011209F0C4FC4B
:102E900014B106F0C7DF01E006F0B6DF384605B032
:102EA000BDE8F0832DE9F04F856A9946AB6885B09F
:102EB00098428846164604D0C06B10B1D0F800A0E6
:102EC00001E04FF0000A6FF409434344C3460A2B64
:102ED0000BD8DFE803F00E18303341464B4F530652
:102EE000260000204FF0A20860E000204FF0FF3BDA
:102EF0005CE000220096CDF804900292CDF80CA080
:102F00006868314909E001230096CDF804900293E6
:102F1000CDF80CA068682C490022134603F09EFDF2
:102F200044E000220096CDF804900292CDF80CA067
:102F300068682649F1E740F2DC5310E0284617F0B4
:102F400039FC304605F11001B9F1240F34BF4A466F
:102F5000242217F0E3FA28E02B6893F8223033603C
:102F600023E02A68336882F822301EE000204FF008
:102F700009081BE000204FF00A0817E02A68062322
:102F8000002499FBF3F32746C2F8143108E0062227
:102F900004FB0210B919523017F0C0FA0134063799
:102FA0002968D1F814319C42F1D30020D84507D0CC
:102FB000CDF800A06868414632464B4609F0B4FBA4
:102FC00005B0BDE8F08FC046971F0200A51F0200A4
:102FD000536807B5102B01D0122B10D1937803F052
:102FE0000101017359B9406843F2F823C35813F43F
:102FF000805F04D00A460B46009108F045FB0EBDE9
:103000002DE9F0410446164609B9A76800E04F686B
:1030100030697D6B027B437B002D39D043EA02226D
:1030200048F66C039A421BD0EB6A13F0010F17D0DD
:10303000627BAAB112F0010F03D0037813F0010FE5
:1030400005D012F0020F04D0FEF720F808B10123DA
:1030500000E000231A461BB923683146986C1BE038
:1030600023683146986C06F021DF428B96F92730B1
:1030700022F0FF02134343832B6A0446DB68384681
:1030800029462246984748B1204617F059FB05E0EB
:1030900023683146986C2A4606F0E0DEBDE8F081F0
:1030A00037B50C4B026800930B4B04460193126832
:1030B00008460A4B0D460A49FDF77CFF236809497B
:1030C000D86817F0C5F8024618B128460649FDF73A
:1030D00071FF3EBDD81F0200881F0200CC1F0200F6
:1030E000B41F0200E11F0200EA1F020010B50368CE
:1030F0005B7C13B1406805F06DFF10BD10B503682F
:1031000042685C7C0CB1002412E00A4B1B781BB1B6
:10311000104618F0C5FC0BE0104621F031FF0446C4
:10312000FDF704FBFDF76EFB0146034813F090D852
:10313000204610BD173D02000120020010B5406876
:1031400000F018FB10BDC04610B5406800F06CFCE4
:1031500010BDC04610B5034B1B780BB921F0B6FB70
:1031600010BDC046173D020010B5446823685B7C63
:103170002BB1606800F0C8FD2046FFF7E9FD10BDE7
:103180000246938A0069401AC918106191827047FB
:103190000246938A00695B1A401810619382704757
:1031A00081827047C08A00F007007047C38A01F02F
:1031B000070123F007031943C182704700F0FF03A2
:1031C000000A40EA03207047024600F47F430006ED
:1031D00040EA032002F47F0340EA132040EA126031
:1031E0007047C0464378007840EA03207047C046E5
:1031F000024643788078000440EA0320137818439D
:10320000D37840EA036070470020704742F6BC6301
:10321000C058003818BF01207047C046B0F82013CE
:1032200090F8503390F86B2D01FB03F35B0012B163
:1032300002FB03F305E090F86A0D10B100FB01F307
:103240005B00B3F5FA6F2CBF18464FF4FA60704775
:1032500001390E2927D8DFE801F0080B0E112626C8
:1032600026262614171A1D20230042F65C3319E087
:1032700042F65D3316E042F65E3313E042F65F330A
:1032800010E042F660330DE042F661330AE042F6A8
:10329000623307E042F6633304E042F6643301E050
:1032A00042F66533C254704741F2E443984201D07C
:1032B000002005E044F22E33994214BF0020012083
:1032C0007047C046002242F69433C2540123C0F82E
:1032D000BC2D80F8113D70470120704790F82430D4
:1032E00013BBD0F8F8379B78F3B942F6BC63C358E8
:1032F000D3B9B0F8123DBBB9D0F8143DA3B943F22D
:10330000D823C35883B943F2DC23C35863B990F878
:103310001A3D4BB9C37C3BB943F28543C35CD3F13F
:10332000010038BF002000E0002070470131032970
:103330002CBF6FF01C0000207047C046B0F8020E92
:103340007047C046CB6943F40073CB61D0F80C38AA
:10335000D3F88031D2188A627047C04630B592F8EF
:103360004C3092F84D2041F60C04015B43EA0223F5
:1033700048F21802054603EA020247F6E07042F0FE
:10338000040200EA411042EA00000131295330BD35
:1033900048F2F303994201D1012005E048F23713C6
:1033A000994214BF002001207047C046D0F80C3865
:1033B00003F5A072136813F0080FFBD14FF002035E
:1033C0001380704790F8533D00B5BBB190F8501D85
:1033D0004FF0000E00EB0E0303F529531A880EF18F
:1033E000020E40F629139A4298BF41F00101BEF146
:1033F0000C0FEFD1D1F1010338BF002380F8523D0B
:1034000000BDC046D0F80C28002393617047C04629
:103410007047C046094BC1F3411233F81220084BE4
:1034200001F00F015B5C80F8823180F88331DBB200
:10343000A0F8802180F884317047C046282A020015
:1034400092270200002070477047C0467047C04670
:1034500010B51046C2B14C6844F480724A6043799A
:10346000012B94BF44F4A06322F480634B60437843
:10347000052B09D9037A13F0040F4B6814BF43F0EE
:10348000806323F080634B6010BDC046002070470E
:103490002DE9F04701F11C07397A8146924601B3C4
:1034A00019E00C2401FB049404F52E55503501233A
:1034B0006B7042F6C83842F6CC33E258514654F8A5
:1034C00008604846B047002242F6D033297844F8D5
:1034D00008206A70E2544B1EDBB2072BE1D90023AF
:1034E0003B72BDE8F087C04643F28913C25642B929
:1034F000013BC254043BC25000F54650037803B16F
:1035000002707047042902DD6FF0010011E069B913
:10351000D0F88C3313F0800F01D0042300E0022395
:10352000C0F814380323C0F8143801E0C0F81418A8
:103530000020704710B584466FEA020E08461EEA66
:103540000004114602D06FF01C000FE041F232423D
:103550001CF8023003EA0E0E0CF802E030B101EA6A
:1035600000034EEA03030CF80230204610BDC046AB
:10357000436B10B5ABB1012980F83C1005D0B1F117
:10358000FF3F07D190F8983B23B1012241F230432D
:10359000C25406E0002141F23043C1540422FFF737
:1035A000C9FF10BD082810B5144601D9002008E055
:1035B000044B13F8202003EB80030A705B88012082
:1035C000238010BD2A3C0200D0F848385868704764
:1035D000D0F8483818687047D0F8C43710B523EAD7
:1035E00001011143994205D0C0F8C41700F5E86005
:1035F00009F0D0DF10BDC046037C10B52BB190F8A8
:10360000503D13B94FF0807200E000224FF0A071DE
:10361000FFF7E2FF10BDC046012310B5044680F855
:103620003D3D17F0A7FB20464FF400310022FFF785
:10363000D3FF10BD002310B580F83D3D044617F0C0
:1036400099FB4FF4003120460A46FFF7C5FF10BD35
:10365000D0F8883010B523EA0103C0F8883033B9B8
:10366000D0F8843013F0806F01D109F093DF10BDE2
:1036700070B59378D478D0F80C581B04107843EACE
:1036800004635678147903434900507941F4802249
:10369000013143EA062344EA002441F48021C5F8BD
:1036A0006021C5F86431C5F86011A5F8644170BDAA
:1036B000537870B51678947846EA0326D378D0F814
:1036C0000C5844EA03241079537941F0200140EA70
:1036D000032089B2A5F82014A5F82264A5F8224495
:1036E000A5F8220470BDC04600F548531433994232
:1036F00010B50A4603D10321D432FFF7D9FF10BD1C
:1037000010B50321014AFFF7D3FF10BDA01D020031
:10371000D0F84838D0F80C28A3F83411024BC2F87E
:103720006031C2F86411704703000200D0F84838D5
:10373000D0F80C28A3F83611024BC2F86031C2F859
:103740006411704704000200002243F2F413C254D3
:103750007047C046D0F83008C0F3C64040027047FA
:10376000D0F8082DD0F80C38C0F8042DC3F82C215F
:103770007047C046D0F844381B7A2BB1D0F80C38CB
:10378000C0F8041DC3F82C117047C04610B50121C4
:1037900017F0FEFA10BDC04600EB810370B5044679
:1037A000D3F878070D4608B14369984794F8C117D4
:1037B00059B10123AB4021EA030384F8C13723B98F
:1037C00004F5E8600821FFF743FF70BD0B6810B5F2
:1037D0005F2B0C460BD8922117F0F0FA400080B214
:1037E00028B1236800EB43030120236000E00020A0
:1037F00010BDC04673B5082206460D466846074907
:1038000016F08CFE00243DF80410625B3046023452
:1038100017F0E4FA082CF6D17CBDC046202A02003D
:1038200073B543F29043C45A4FF0020214F00103FF
:10383000009202F5FF7218BF13464FF001010546D2
:10384000002617F0FDFA012254FA02F313F0010FDB
:1038500004D00F4B03EB82035B881E430132092A1D
:10386000F2D102244FF6F7532846214606EA030315
:1038700041F20452009417F0E3FA00234FF480520F
:1038800000932846214606EA020317F0D9FA7CBDC8
:103890002A3C02002DE9F04106460C4601F12507BD
:1038A00000250DE02B1993F826307A5D05F5B071EF
:1038B00002EB0322304692B217F090FAAB1C9DB295
:1038C00094F824209542EDD33046482117F086FA2B
:1038D000BDE8F08110B5044609F0E2DF94F86B3DD5
:1038E000012B03D12046B621002205E094F86A2D71
:1038F0002046B62142EA032217F070FA10BDC046F6
:1039000010B590F82320D0F80C38002A0CBF022202
:10391000FA22A3F81226962117F060FA10BDC046CD
:1039200070B542F69A3354210546C45A17F046FA48
:1039300020F47070044354212846A2B217F04EFAC6
:1039400070BDC04670B50121D0F80C480A46054646
:10395000D4F82031FFF740FE0123C4F8283105F5E3
:10396000E8600421D4F82031D4F82831FFF770FE44
:1039700070BDC046D0F85C371A71704710B543F27D
:10398000B913C35C91F845E03BB942F69933C35C87
:10399000012B02D091F8442000E00022964581F8E6
:1039A000452002D08968FFF7E5FF002010BDC04622
:1039B000D0F80C38D3F880010860D3F88431136054
:1039C0007047C04670B5437C05465BB361B140F6B5
:1039D000040421460022284617F000FA023440F67B
:1039E0000C039C42F5D11DE000F55254203440F602
:1039F00004063146284617F0E1F9A91942F6AC4E03
:103A000031F80E30984207D0C3EB0002236892B21F
:103A10009B18236021F80E00023640F60C03043494
:103A20009E42E6D170BDC04670B5D0F84438054618
:103A3000187A08B9064612E0D5F80C380024D5F8F3
:103A4000046D0120C3F82C41D3F82C3115F0B2FFDE
:103A5000D5F8003DC5F8044DA34218BF26463046B0
:103A600070BDC04670B50546282015F0A3FFB5F817
:103A7000243803F1090403E00A2015F09BFF0A3CF7
:103A80004021284617F09AF9042801D1092CF3D8CF
:103A900070BDC0460A46D0F8C81710B5044621B913
:103AA000D0F8C43713F0806F04D042EA0103C4F8A1
:103AB000C83708E0C0F8C82700F5E86009F06ADDFB
:103AC0002046FFF7CFFF10BD70B5D0F80C48042199
:103AD0000546FFF7DFFFD4F82031B3F1FF3F1DD0DB
:103AE000D4F82831B3F1FF3F18D028460121002235
:103AF000FFF772FD0C4E03E00A2015F05BFF0A3E53
:103B0000D4F8283113F0010F01D1092EF4D1D4F8E3
:103B10002831D4F82031B3F1FF3F03D1D5F83C0769
:103B2000FFF7E4FA70BDC0464144010001238B4019
:103B300070B590F8C127DCB204EA0203A34205463F
:103B40000E4610D012B90821FFF7A4FF95F8C1372F
:103B500044EA030385F8C13705EB8603D3F87807F9
:103B600008B10369984770BD73B50DF102060D46A3
:103B7000044600213046062216F0B0FC75B12046FE
:103B80000121FFF7D3FF20460321FFF7CFFF204697
:103B900000213246FFF78CFD012314E094F8CE3D5E
:103BA0001BB920460121FFF7F7FD20460321FFF74F
:103BB000F3FD2046294604F14C02FFF779FDD4F8C5
:103BC000CC376BB10023C4F8CC37D4F8C43703F436
:103BD000C023B3F5003F03D004F5E86009F0DADC58
:103BE0007CBDC046012110B580F8CE1DFFF79EFFB9
:103BF00010BDC046002243F22E4310B5C25417F048
:103C00002DFA10BD2DE9F04190F81C68044616B954
:103C1000012109F0F9DCD4F844381D7A55B9A068BF
:103C200029462A4616F01CF94FF4806120460A46C0
:103C3000FFF7D2FCD4F80C38D3F858711DB9A0683E
:103C4000294616F011F91EB92046314609F0DCDC90
:103C5000D4F8103717F4803F14BF43F0020323F069
:103C60000203C4F81037BDE8F081C0462DE9F041E9
:103C7000D0F80C680446D6F82821B2F1FF3F01D1F4
:103C8000002728E011B1D0F8043D01E0D0F8083D4C
:103C900013EA02071FD0D4F80C380025C3F82C51C2
:103CA00017F4800FD3F82C31C4F8045D0AD0012337
:103CB000294684F8443D204617F03CFA2046294620
:103CC00017F010F917F4004F18BF4FF48033C6F8FF
:103CD000287118BF33623846BDE8F08170B5002303
:103CE0000B70437C04460D4663B1D0F8043D4BB1E4
:103CF0000121FFF7BBFF28B101232B70C4F8000D91
:103D0000184600E0002070BD10B500210446FFF702
:103D1000ADFFB0F1FF3F01D1013005E0D4F8003D27
:103D20000343C4F8003D012010BDC046002142F607
:103D30003843C15000F5305010B53C304FF400729C
:103D400016F0CCFB10BDC04670B590F81D58044667
:103D50000E4615B9294617F007F9D4F8483871B25C
:103D600018680EF075FFD4F84838A168186814F088
:103D70009FFAD4F84838186821F046FED4F848086D
:103D8000314678300CF060DE1DB92046022117F074
:103D9000EBF870BD70B5D0F8D05795B184680022AB
:103DA00013462946204616F0A1F829462A46002344
:103DB000204616F07FF8002220462946134616F0CA
:103DC0005DF870BDD0F8483810B518684FF0FF3175
:103DD000002210F06DF910BD70B5C1F30224012C62
:103DE00098BF022411F0006F0D4601F07F0009D04A
:103DF0000D4A142300FB03231B7CC1F3072141EA76
:103E000003230BE00CF0C2DC80B203B2B3F1FF3F3E
:103E100008BF002000B244EA002083B2C5F3C220EC
:103E200043EAC00070BDC0464CA181002DE9F04FAF
:103E30000C46A1B000210592D4F8108004F11C02B8
:103E40001D911C9114928B420CBF4FF0020B4FF04E
:103E5000030B98F8002098F80130074642EA032344
:103E6000C3F3810A0693BAF1020F0ABF06990B4603
:103E7000C1F3C013DBB2806C2146DDF8B89011931A
:103E800012F0BED804300890B9F1000F03D099F9B0
:103E90000F30C0180890D7F83038002B21DAB9F16C
:103EA000000F1ED099F80830022B1AD142F61123C8
:103EB000FB5CB3B9D7F8D03DD3F8943013F0080FBA
:103EC0000FD199F80630352B0BD8032B09D90B2BC2
:103ED00007D82B9A012A04D1089B1592083308931E
:103EE00001E00020159006212046FFF749F96821DE
:103EF00007902046FFF744F900216822064616F095
:103F0000EDFA14990B6813F4806F01D08A8826E0CB
:103F1000059B5A68AE4B02EA0303D3B1069800F042
:103F2000FC03882B15D198F8043013F0010F10D141
:103F30002046FFF737F9059A02EB40012B98B1F8BC
:103F40007021431E2A98984209D1531CA1F8703160
:103F500005E0BAF1010F12D00022102503E0BAF1FA
:103F6000010F0CD000252A9901F00F0343EA021338
:103F70009BB288F816301B0A88F8173000E000253D
:103F80002C9A042A08D1059B384659693246FFF716
:103F9000E5F9ADF87C0019E02B9841F60A01431EC3
:103FA0002A987A5A984201D1531C7B522A992C980C
:103FB00001F00F0343EA02135B0147F6E07203EAE4
:103FC000020200F007031A43ADF87C20149A069908
:103FD000136801F0FC0123F08040106080291791E4
:103FE0007C4B2F9908BF45F0200501EA03031BB95C
:103FF000D7F84838DB6B2F9376492F9A02EA0101F4
:1040000011B11C921D9224E0D7F848381A6C714BFC
:1040100002EA030343B198F8043013F0010F03D010
:104020008C461C921D9248E098F8043013F0010F62
:1040300008D1BAF1000F05D0BAF1010F02D010F08B
:10404000100F09D0059890F8FC3003F07F031C9303
:104050001D934FF0000C30E01CAB00930DF17F037B
:1040600001930DF17E0302930DF17A0303930599F9
:104070001FAA1DABD7F8F00714F068FF14990B685E
:1040800043F08042BDF87A300A6013F0010F18BF88
:1040900042F40053149A18BF0B60136813F0100F0A
:1040A00005D0059890F8FC3003F07F031C932A9903
:1040B000D1F1010C38BF4FF0000CD7F84838796BBC
:1040C00093F845401D9A002900F0288112F0006FF6
:1040D00002F07F0104D0072906D9202904D036E058
:1040E0003D4B5B56002B32DA002A30DB22F44010C5
:1040F00020F4605012F0006F1D9025D0059A53688F
:1041000013F0804F06D0D7F8483893F94630B3F112
:10411000FF3F05D0D7F8483893F94630012B13D12B
:104120002E4A40F48051142300F07F0000FB03234B
:104130001A7C42F69933FB5CA3EB9213013BDBB292
:1041400041EA03511D9102E040EAC4231D931C99EA
:1041500011F0006F01F07F0204D0072A06D9202A4F
:1041600004D040E01C4B9B56002B3CDA1D9B002BDF
:1041700039DB21F4401020F4605011F0006F1C90E6
:104180002ED005994B6813F0804F06D0D7F84838E9
:1041900093F94630B3F1FF3F05D0D7F8483893F98B
:1041A0004630012B1CD10D4A40F48051142300F0FD
:1041B0007F0000FB03231A7C42F69933FB5CA3EBE0
:1041C0009213013BDBB241EA03511C910BE0C04664
:1041D000400001007F00000864A081004CA1810024
:1041E00040EAC4231C931D9B03F07F03202B04BFD4
:1041F0004FF000631D931C9B1D9A03F07F03202B3F
:1042000004BF4FF000631C931C9B22F4E06242F455
:10421000007223F4E06343F4007312F000611D9216
:104220001C9301D10D9148E042F66133FB56032BFC
:1042300011D1059A0BF0FD0B536813F0400F11D00C
:10424000119B7BB19E4B2C981B5C07EB4303B3F88F
:10425000883D3BB109E0012B07D100210BF0FD0B9C
:104260000D9104E001220D9201E000230D930598C9
:10427000436803F48813B3F5881F03D042F6633311
:10428000FB5C0BB10BF0FD0BD7F84838CDF810C034
:1042900018680EF0AFF940B2B0F1FF3FDDF810C082
:1042A00005D001280CBF4BF0020B0BF0FD0B1BF0EF
:1042B00002030CBF9B464FF0030B1D9A12F0006FD8
:1042C00003D0D7F84C3D012B03D02F9911F4000FE8
:1042D00002D042F4000304E0D7F84C3D13B922F4B5
:1042E00000031D931C9A12F0006F06D0D7F84C3DC6
:1042F000012B02D142F4000304E0D7F84C3D13B97E
:1043000022F400031C931D9B13F4000F15D003F03F
:104310007F03072B0FD9202B0DD00EE01C9B22F41E
:10432000E06223F4E06342F4007243F400731D92F0
:104330001C930D9101E04FF0000BBCF1000F11D068
:1043400042F6384439591D9807EBC10242F63C4306
:10435000D0502B98013102F53152C3B201F03F0128
:10436000136039511D9911F0006410D011F4000F41
:10437000544801F07F0204D0142302FB03039B681E
:1043800003E0142302FB03F31B58139302E001F034
:104390007F021392BAF1020F02D0BAF1000F11D1CD
:1043A00042F64C23FB5A0898984204DC149A13688E
:1043B00013F0806F06D098F8043083F0010303F007
:1043C000010300E000230C93D7F84838187B50B164
:1043D00042F65C33FB5C33B12CB93B4A01F07F03FE
:1043E000D356002B07DB7B6B002B2BD054B342F64C
:1043F0006133FB5633B32B9A012A13D914980368FF
:1044000023F08043036042F65C33FB5C0BB1162360
:1044100000E030231C931D931C9B43F400731C93FA
:104420001D930FE070B142F65C33FB5C53B14CB9A5
:10443000254A01F07F03D3560D9931EA230128BFA5
:1044400001210D9105981C9A43680B9213F4803F4B
:104450003CD097F8453D002B38D097F8483D002BCD
:1044600034D042F66133FB56032B2FD01D9B13F043
:10447000006F09D103F07F03022B27D0042B25D036
:104480000B2B23D0162B21D098F8043013F0010FFA
:104490001CD11799882919D1149A45F480451368BD
:1044A00043F480531360B8F818204FF69F7302EA64
:1044B000030343F02003A8F8183001230E9307E00C
:1044C0005A2002004CA1810064A0810000200E90BF
:1044D00038461D99089A079B0DF16A0408F0ECDF35
:1044E000234638461C99089A08F0E6DF062206F1B2
:1044F0003600214616F012F81C9B13F0006F10D105
:1045000003F07F03022B05D0042B03D00B2B01D02B
:10451000162B06D10899C1F3072386F83A1086F8BE
:104520003B30149B1A6812F4806F1DD01D9B13F052
:10453000006F19D01C9B13F0006F15D0B9F1000F5C
:1045400003D099F80830042B0ED1149842F400637C
:10455000036041F2F733FB5C33B197F8633D0C998C
:10456000012B18BF01210C911D9911F0006F0AD188
:104570009A4A01F07F03D356002B04DA079A137886
:1045800003F00F0301E0079B1B7806980A93A42809
:1045900012D098F8043013F0010F0DD10E9A6AB9B9
:1045A00038465A462D9B07F035D988F80200C0F3EB
:1045B0000F2088F803001BE00E9B63B140F62A131E
:1045C00038465A4607F04ED9023080B2030A88F8BE
:1045D000020088F803300698A42809D198F8023020
:1045E00098F8032043EA022386F83C301B0A09E0CE
:1045F00098F8043013F0010F01D10E9929B100236E
:1046000086F83C3086F83D300BE038461C995A4617
:104610002D9B07F0FFD886F83C00C0F30F2086F8EA
:104620003D00149A136813F4007F0DD0938945F46C
:10463000005586F842301B0A86F84330D38986F845
:1046400044301B0A86F845302A9B0BB945F0080513
:1046500008F10400169098F8043013F0010F14D1FB
:1046600014990A6812F4805F0FD197F8473D13B18F
:1046700012F0400F09D112F4806F04D1119A12B1D7
:1046800097F8833D0BB945F00105BAF1020F07D148
:1046900097F8453D23B1139B042B88BF45F4805503
:1046A000159808B145F400452B0A35707370B9F1BF
:1046B000000F15D042F61123FB5C8BB9D7F8D03D23
:1046C000D3F8943013F0080F0AD199F80620352A50
:1046D00006D899F80C3003F0070343EA021300E010
:1046E0000023B3701B0A0024F370301D41460222E0
:1046F00015F014FFB471F47186F82C4086F82D4043
:10470000B9F1000F38D042F61123FB5C002B33D1F6
:10471000D7F8D03DD3F8943013F008002CD199F895
:104720000630352B28D8069A08F1180102F4407398
:10473000B3F5407F119B08BF08F11E0103B10231A0
:1047400099F80830022B11D1324609EB0003B3F877
:10475000BC309375C3F30723D375831C02320A2B35
:104760001846F2D106F12000032203E099F90E2049
:1047700006F1160015F0D2FE062206F12600169963
:1047800015F0CCFE9DF87C30002286F84C309DF868
:104790007D3086F84E2086F84D3086F84F200C98F4
:1047A00008B10D9203E00D99002900F0C0801D9919
:1047B00000220223384616F0CFF800221090022380
:1047C00038461C9916F0C8F881460D9832787378EF
:1047D00030B142EA032343F4006305E064A08100A2
:1047E00042EA032343F0060333701B0A73700D9AE9
:1047F00006F150010F91002A0CBF14250E2519ACAB
:10480000384610992A460F9B08F056DE2346384654
:1048100049462A4608F050DE2146062206F12E00BF
:1048200015F07CFE089B002401930D99109A1D9BA6
:104830003846CDF800B0029406F07CDF86F85800C8
:10484000C0F30F2086F8590008980D9901904A4648
:1048500038461C9BCDF800B0029406F06BDF86F85A
:104860003400C0F30F2086F835000D9906F1560A82
:1048700006F15A0049B16FF03B0308F10A01062224
:1048800086F8563086F8574008E06FF04B0386F8FC
:1048900056300D9A86F8572016990C2215F03EFED8
:1048A000109B13F0006F0AD1A34A03F07F03D35685
:1048B000002B04DA0F98037803F00F0301E096F859
:1048C00050300A990B9A1B0243EA010112F0006F63
:1048D0000A910FD012F4000F984802F07F0204D022
:1048E000142302FB0303996807E0142302FB03F37C
:1048F000195802E00B9B03F07F0119F0006F0FD0F5
:1049000019F4000F8D4809F07F0204D0142302FB34
:1049100003039B6806E0142302FB03F31B5801E02A
:1049200009F07F0399421ED9CDF82C901BE00D9918
:10493000062206F1500015F0D1FD0D99102206F166
:10494000560015F0CBFD06F12E000D99062215F04C
:10495000C5FD0D9886F8340086F83500DDF834A0E2
:10496000CDF840A0D14614990B6813F4806F0BD09A
:104970001D9A12F0006F07D0D7F8E8070599089B39
:1049800018F0C0FB86F833000A9A130AB274F37465
:104990001C9B13F0006F03D041F2F433FB5C0DE07D
:1049A00003F07F03022B07D0042B05D00B2B03D081
:1049B000163B18BF012300E000239BB20993109B14
:1049C00013F0006F04D041F2F433FB5C9D000FE064
:1049D000109800F07F03022B07D0042B05D00B2B7F
:1049E00003D0163B18BF012300E000239B009DB2BB
:1049F00019F0006F04D041F2F433FB5C1C010EE0AF
:104A000009F07F03022B07D0042B05D00B2B03D01A
:104A1000163B18BF012300E000231B019CB2D7F80E
:104A2000483818680EF01AF9D7F84838C0B21B6831
:104A300019680EF02DF9099945EA0103234343EA69
:104A400000239BB233751B0A73751D9911F0006F1B
:104A500003D041F2F433FD5C0DE001F07F03022B43
:104A600007D0042B05D00B2B03D0163B18BF012316
:104A700000E000239DB21BF0010F68D00B9A12F0EA
:104A800000645DD102F07F03022B04D042F6943320
:104A9000FB56012B54D198F8022098F8033052EAC3
:104AA00003230AD0384622462D9B06F0B3DE88F851
:104AB0000200C0F30F2088F8030096F83C2096F817
:104AC0003D3052EA03230BD038461C9922462D9BD9
:104AD00006F0A0DE86F83C00C0F30F2086F83D000B
:104AE000BAF1000F33D09AF802209AF8033052EA54
:104AF00003232CD0089B0D990193109A1D9B3846D7
:104B00000094029406F016DE8AF80200C0F30F202B
:104B10008AF8030008980D9901904A4638461C9B74
:104B20000094029406F006DE86F83400C0F30F20ED
:104B300086F835000BE0C04664A081004CA18100DE
:104B4000D7F8B83345F010050133C7F8B83342F64B
:104B50009A33FB5A384603F470731D43C5F30F2391
:104B6000737235721D99FFF737F9B072C0F30F20D9
:104B7000F0721C993846FFF72FF93073C0F30F20FD
:104B800070730C9909B90D9A7AB110993846FFF7EC
:104B900023F9B073C0F30F20F07349463846FFF78E
:104BA0001BF93074C0F30F2070741D9911F0006F61
:104BB0000CD015F0100F09D13846089A07F03CDEEA
:104BC00086F83E00C0F30F2086F83F001C9911F0D4
:104BD000006F0CD015F0100F09D13846089A07F075
:104BE0002BDE86F84000C0F30F2086F841001D99A7
:104BF00011F0006F2DD001F07F012029D7F848086F
:104C000002D10068002100E000680EF0D1F8D7F86A
:104C100048381D990022C4B201F07F0118680EF0D7
:104C2000CFF863B240B21B1A98B202B21F2A01DD5C
:104C30001F2005E04FF6E07312F1200FB8BF1846B1
:104C40008202AB0502F47C429B0D1A433272120AB7
:104C500072720598436813F0400F00F08780119935
:104C6000002900F08380464B2C9A9B5C129307EB43
:104C70004303B3F8883D002B78D01498036813F4ED
:104C8000806F73D12A99002970D138461D995A46F0
:104C9000089B06F0E7DD8046BAF1000F19D01099A5
:104CA0005A46384606F00ADD5A4604464946384612
:104CB00006F004DD9AF803209AF8023043EA022352
:104CC000E51896F8352096F8343043EA0223C018E8
:104CD0001AE00E9A12B10546504615E01D995A4643
:104CE0000E9B384606F096DD1C995A46089B00EB51
:104CF0000805384606F0B6DD1C9904465A46384683
:104D00000E9B06F087DD0019ABB2B3711B0AF3717D
:104D100083B286F82C301B0A86F82D30129807EBE8
:104D20004003B3F8884DC8EB05039C421ED33846B8
:104D30001D995A46C3EB040308F05ADAFF2802D83B
:104D40004FF4807005E042F63E23FB5A984228BF9C
:104D500018462C9980B207EB410303F529521388BA
:104D6000834203D010803846FEF72CFB149ABDF81E
:104D70007C00136843F00403136021B0BDE8F08F9A
:104D80005A20020070B50D465421044616F016F85C
:104D900015F0006F05D041F2F433E35C03F0030338
:104DA0000EE005F07F03022B08D0042B06D00B2B5E
:104DB00004D0B3F1160218BF012200E0002213460E
:104DC00020F0030243EA0202542192B2204616F078
:104DD00005F8D4F8483818680DF040FF00F4407327
:104DE000B3F5007F14BF4FF400734FF4407325F404
:104DF000E06143EA01012046FEF7EEFFB0210246E2
:104E0000204615F0EBFF70BD2DE9F043074695B045
:104E1000904699460E46002900F08C8010F0E0DDA7
:104E20000546002800F0868001AC00214C22204677
:104E300015F054FB4FF002030622ADF8043004F1E4
:104E400010004FF04C033146ADF8063015F066FB0C
:104E5000282204F1180005F1F80115F05FFBD7F8DE
:104E60000C372A6A00249B1A049303940C946B68F1
:104E700013F4807F01D0012303936B6813F0400F7C
:104E800003D0039B43F0020303932B7B13F0010F2A
:104E900003D0039B43F0080303932B7B13F0020F13
:104EA00008D0039B43F010030393D7F80C376A6ACA
:104EB0009B1A0C932B7B13F0100F03D0039B43F032
:104EC0002003039395F8823113F0010F03D0039B65
:104ED00043F40073039395F8823113F0020F03D06B
:104EE000039B43F48063039395F8823113F0040F1E
:104EF00003D0039B43F40063039395F8823113F0CE
:104F0000080F03D0039B43F4805303930D946B6805
:104F100013F4803F03D0039B43F4005303934046B4
:104F200001A9B9F14B0FCCBF4C22342215F0F6FA8F
:104F3000204601E04FF0FF3015B0BDE8F083C046D9
:104F400070B516220C4605460846002115F0C6FA33
:104F5000B5F824030AF0DCDD6378207003F0FC026E
:104F60006270B5F8243303F44073B3F5007F08D0C2
:104F7000B3F5407F03D0B3F5807F05D007E06270C2
:104F800005E042F0030301E042F00103637063783F
:104F9000002223F004036370A270E27042F66133D2
:104FA000EB56022B01D1A37005E0032B01D0012B9E
:104FB00001D1A370E27042F66333EB5C43B1A37896
:104FC000E27843EA022343F00403A3701B0AE37070
:104FD00042F66533EB5C43B1A378E27843EA0223FF
:104FE00043F01003A3701B0AE370637841F2FA30B8
:104FF00003F0F702627042F66133EB56032B1CBFDD
:1050000042F0080363704FF000032B5241F2F83373
:10501000EB56012B03D042F65733EB5CABB1E27891
:10502000A37840F6084143EA022343F00803A37043
:105030001B0AE370B5F8242341F6100302F4704212
:10504000B2F5805F08BF0B462B5205F5A051A01D9D
:105050001F31102215F062FA70BDC04670B541F6DE
:105060005803C35C05460B7041F65C03C35C0C46F9
:105070004B7041F65A03C05A0AF04ADD41F6590313
:10508000A070EB5C201DE37070BDC04610B5072218
:1050900010F00AD810BDC0462DE9F84FB0F8FC8DCD
:1050A0000C2308FB03F303F5606300F55E65C3188A
:1050B00007468B461C351E1D4FF000091BE0284695
:1050C000514610F0FFDDC36A02465B4507D0002C55
:1050D00008BF04465146284610F088DD04E011461A
:1050E000B86C012204F0BADE56F80C3CA342E6D1BB
:1050F00009F101090C3EC9EB0803C14503F1FF3A70
:1051000001D00024F0E7BDE8F88FC046D0F8883120
:105110002DE9F043072203FB02F39FB003F10409DA
:10512000044600214A46684615F0D8F9D4F8C40E62
:105130000FF0E0DD6D460746002838D015234360A8
:10514000D4F88801FEF740F8043526464FF00008F1
:1051500000900EE0072108FB01F101F58C71611848
:10516000062215F0DBF996F8173108F1010805F869
:10517000013CD4F888312846073607359845E9D3ED
:10518000C7F814904846002104F01CDCF86328B9E5
:10519000D4F8C40E39460FF0BFDD08E069467A69DD
:1051A00015F0BCF9D4F8C40E394619F0E7FD1FB06C
:1051B000BDE8F0832DE9F047054689464FF0000829
:1051C00068E005EB880241F2B843D758B9F1000F07
:1051D0000FD003F52F733A7AEB5C934258D105F563
:1051E000BA5107F1090035311A4615F099F800282F
:1051F0004ED100240BE0072104FB01F101F58C7175
:1052000038466918062215F08BF828B10134D5F814
:1052100088319C42EFD307E0102C05D0D5F88831B7
:10522000013B9C4234D009E0D5F888110F2901D107
:10523000002104E04B1CC5F8883100E021464E1CDB
:10524000072306FB03F303F58C73EC1806E0A4F1C7
:105250000E00E11F072215F061F90136D5F888012B
:1052600007348642F3D3072400FB04F000F588706E
:10527000013028183946062215F050F9D5F8883142
:1052800003FB045497F87330C3F3400384F81731D9
:1052900008F1010841F2B443EB58984591D342F626
:1052A0001023EB5C2BB1D5F8883113B12846FFF7FA
:1052B0002DFFBDE8F087C04630B587B000930A9B4C
:1052C0000C4601930B9B154602930C9B0021039304
:1052D0000D9B224604932B4607F034DF07B030BD08
:1052E0001FB5002243F29643C25246211346009254
:1052F000019202920392FFF7DFFF05B000BDC046A6
:10530000F0B543F28847C35DA7B013F0010205462C
:105310000E461CD004AC00218822204615F0DEF891
:1053200043F28A43EB5A0C21ADF818306C230593F5
:10533000EB5D0022049123F00103039128463931EB
:10534000ADF81A20EB5500920192029404E000920D
:105350000192029203921A213346FFF7ADFF082E05
:105360000DD06EB141F2C462AB58022B02D10133B1
:10537000AB501FE005F5B652032313601AE0012677
:1053800005F5AC543C342846214607F093DD05F57D
:10539000A4503430214607F051D941F2C462AB58D1
:1053A000022B01D1AE5005E005F5B6500368022B83
:1053B00008BF066027B0F0BD30B542F6BC63C358E5
:1053C00085B0093B012B054623D811F0020211D10B
:1053D00042F6B863C158009201920292039200F51E
:1053E000BA52012914BF092107212C320523FFF7E6
:1053F00063FF0EE042F6B4642959D0F83C0712F07E
:10540000C7DFD5F83C0729594FF49B72002312F0EF
:10541000ABDF05B030BDC04630B542F6BC63C35803
:1054200085B0062B054601D0082B1DD111F00203D3
:105430000BD105F5BA520093019302930393032114
:105440002C320523FFF738FF0EE042F6B4642959E9
:10545000D5F83C0712F09CDFD5F83C0729594FF4EA
:105460009B72002312F080DF05B030BD10B580F8CC
:10547000F01D21B190F8633D191E18BF012116F0EF
:10548000CBFA10BD10B50446806814F04BFD38B35C
:1054900094F8143723B32046002116F08FFA002128
:1054A000204607F003DA2046FEF70EFBD4F8483812
:1054B000002118680DF07EFBD4F8483800211868E8
:1054C0000CF0D2DF002184F81417A068FBF7FEFE71
:1054D000D4F80C28D2F8E03143F02003C2F8E031D0
:1054E00010BDC046D0F8103770B5054693B143F2F1
:1054F0008442835C53B90133835490F86C3D2BB1E3
:10550000D0F83C07D5F81C1D12F042DF2846FFF703
:10551000B9FF4AE0806814F005FD48B395F81437E8
:10552000012B25D0D5F80C28A868D2F8E03101214C
:1055300023F02003C2F8E031FBF7C8FED5F8483865
:10554000012118680CF090DFD5F84838012118685F
:1055500001240DF02FFB284685F81447FEF7F2F9D9
:105560002846214616F02AFA2846214607F09ED9F9
:1055700043F28442AB5CC3B10023AB54D5F81C1D8D
:105580000133D5F83C074FF47A7212F0EDDE95F84E
:10559000F01D012385F86C3D21B195F8633D191E7E
:1055A00018BF0121284616F037FA70BD10B590F8E3
:1055B000193D044613B9013380F8193DFEF722FB6B
:1055C0002046FFF78FFF10BD30B5D0F8484885B0B2
:1055D0000022FF23256800920193436B08469B1A23
:1055E00018BF0123029314230393114663682A68AA
:1055F0000BF07ED905B030BD11F0020F37B505466E
:105600001CD0114610F0ECD90446B8B195F82430FE
:1056100013B105F54A7001E005F5BD507F230093F5
:10562000E388002203F00103019304F1F80113461B
:105630000BF03CD8284621461BF0EAFF3EBDC04691
:10564000B0F8243370B503F470430D461146B3F53A
:10565000805F14BF00220122044610F0F1D90646F3
:1056600058B115F0FE0304D184F8623D204615F0D0
:10567000F5FC736823F40003736070BD2DE9F04FEF
:105680008BB005920493059B9DF854205B69059CA3
:10569000039207936268594B069002EA0303149A37
:1056A00088460E69002B0CBF0A240C241AB192F90B
:1056B0000E30E3189CB221464046FDF761FD2246BC
:1056C0000021054614F00AFF169B04F10E021A8011
:1056D000069B079A93F82390281D02F1D40405F144
:1056E0000A0706F1060A05F1100BB9F1000F16D0F2
:1056F0002146062208AC14F011FF3146062220464E
:1057000014F00CFF51460622384614F007FF5846A5
:105710002146062214F002FF4FF480760EE0314657
:10572000062214F0FBFE51460622384614F0F6FE1F
:1057300058462146062214F0F1FE4E46059B5A6853
:105740002E4B02EA030393B3D8F81C10039C11F408
:10575000806F08F11C0004F0070202D0ADF826208B
:1057600012E0069C94F8833D012B06D141F480237E
:10577000C8F81C3042F0200304E05B0103F0600332
:1057800042EA0303ADF82630036813F0400F05D05A
:10579000BDF8263043F08003ADF8263005F118003F
:1057A0000DF12601022214F0B9FE46F08006149A8B
:1057B0008AB1059B05F118045A68104B02EA0303ED
:1057C0000BB105F11A040123009306980799149A66
:1057D00023460FF03FD9049C46F0080314B143F46C
:1057E00080639BB2149A0AB143F480432B7028461D
:1057F0001B0A6B700BB0BDE8F08FC0464000010083
:105800002DE9F04F8FB09A469DF8743091469DF87F
:105810006820199E0993DDF87080836C0A924FF01E
:105820000002ADF8362005460F460B93D6F814B0AB
:105830000A69B8F1000F2FD098F80830022B2BD14D
:10584000D0F83038002B15DA42F61123C35C8BB93F
:10585000D0F8D03DD3F8943013F0080F0AD198F85F
:105860000630352B06D8032B04D90B2B02D8BAF1FE
:10587000010F11D00B9B03920093099A1E9B059276
:105880000693284639464A465346CDF804B0029658
:10589000CDF810800EF0F6D9099A0AF1FF33019283
:1058A0000DF136020292B9EB030318BF012328461B
:1058B00039463246CDF80080FFF7E0FE189B0BB961
:1058C0001C4613E0189A4B4B02F11C04726802EA62
:1058D000030313B1189B03F11E04B8F1000F05D0A8
:1058E00098F90F3098F90E209B18E41842F64633C9
:1058F000EB5C0BB99E4602E07368C3F3800E1B9A03
:105900000023029205932846734639463246CDF865
:105910000090CDF804A00394CDF81080FEF786FA2D
:10592000BDF836306E33ADF836309BF8CC3073B1FD
:105930006CB90A9B5BB14FF6FF73984205D02846BD
:105940002D4922463B4615F05FF88BF8CC40B8F164
:10595000000F17D042F61123EB5C53B9D5F8D03DB8
:10596000D3F8943013F0080F03D198F80630352B94
:1059700008D928460B993A465B460096CDF8048034
:105980000EF06ADC95F8523D002B30D0BAF1010FD1
:105990002DD1BDF8362006F14404F2623969204663
:1059A00014F0BCFD0B98394610F02ADBBDF83630F8
:1059B000C3F10E031B1833631B9A099B726386F8AD
:1059C0003C30D5F8583D3364FA690C4B02EA0303C6
:1059D00043F00403B363627896F8443043EA022349
:1059E00023F400539BB286F844301B0A63700FB057
:1059F000BDE8F08F40000100F9820000003804404B
:105A00002DE9F04F9046AFB0D2F894201D460FAC70
:105A1000B8F89E30064603928A4628220021204686
:105A2000029314F05BFD282205A8002114F056FD16
:105A300006F528501430389A0368D2F800902BB934
:105A4000D6F848381B7B052B04D16748214613F054
:105A5000B7F905E0042B03D130462146FFF7B4FD2A
:105A600005AB009330460FABD6F8281306F54B7202
:105A700006F0D8DB0C222846002114F02FFD96F802
:105A800020332B7296F821336B7296F9262322B1BC
:105A90000123AB72013BEB7202E00223AB72EA72AC
:105AA000D8F8943013F0070F0BD098F89C3043B11E
:105AB000AB7AEA7A43EA022343F01003AB721B0A83
:105AC000EB72D6F848385B68022B0DD1B6F852332A
:105AD00013F0200F08D0AB7AEA7A43EA022343F0AE
